:100000000C9434000C9451000C9451000C94510049
:100010000C9451000C9451000C9451000C94E50088
:100020000C9451000C9451000C9451000C94B400A9
:100030000C9451000C9451000C9483000C945100CA
:100040000C9451000C9451000C9451000C945100EC
:100050000C9451000C9451000C9451000C945100DC
:100060000C9451000C94510011241FBECFEFD8E026
:10007000DEBFCDBF11E0A0E0B1E0E8E1F6E002C0F4
:1000800005900D92A231B107D9F711E0A2E1B1E0DC
:1000900001C01D92A731B107E1F70E9443010C9402
:1000A0000A030C9400008230910561F083309105C1
:1000B00099F00197C9F416BC80916E00826080931C
:1000C0006E0016C0109285001092840080916F001F
:1000D000826080936F000CC01092B200809170001B
:1000E00082608093700004C081E090E00E940A0367
:1000F00078949FB7F894809114019FBF8823C9F327
:100100001092140108951F920F920FB60F921124AE
:100110002F933F938F939F9380911201909113019E
:100120000196909313018093120180911401813004
:1001300091F020911201309113018091150190915D
:1001400016012817390738F081E0809314011092C6
:100150001301109212019F918F913F912F910F9057
:100160000FBE0F901F9018951F920F920FB60F920F
:1001700011242F933F938F939F938091120190911D
:100180001301019690931301809312018091140141
:10019000813091F02091120130911301809115016D
:1001A000909116012817390738F081E080931401E7
:1001B00010921301109212019F918F913F912F91F4
:1001C0000F900FBE0F901F9018951F920F920FB6B1
:1001D0000F9211242F933F938F939F93809112013D
:1001E00090911301019690931301809312018091D5
:1001F0001401813091F0209112013091130180910E
:100200001501909116012817390738F081E0809385
:10021000140110921301109212019F918F913F913E
:100220002F910F900FBE0F901F901895FC01A1E821
:10023000B0E08C918D608C9342E050E05387428710
:10024000219AA0E8B0E08C9181688C93A8E8B0E096
:1002500011961C921E921C92B587A48785B5836067
:1002600085BD21E030E03787268750931601409303
:10027000150184B5826084BD89EF87BD318B208BE9
:1002800080E090E00895CF92DF92EF92FF9280E0BD
:1002900091E00E941601C12CD12C760160E070E043
:1002A000CB01609300017093010180930201909350
:1002B000030120E030E040EA50E40E94F10187FDB4
:1002C00003C080E090E002C084E690E090930501D6
:1002D0008093040180911001909111010E945300BC
:1002E000E0910C01F0910D018091040180838FEF6A
:1002F000C81AD80AE80AF80AC701B6010E94F5012F
:100300002FE632E143E05BE30E94A70220E030E009
:10031000A9010E948D01C5CF5058BB27AA270ED036
:10032000DCC0CDD030F0D2D020F031F49F3F11F4BA
:100330001EF4C2C00EF4E095E7FBB8C0E92FDED092
:1003400080F3BA17620773078407950718F071F4F2
:100350009EF5F6C00EF4E0950B2EBA2FA02D0B01E2
:10036000B90190010C01CA01A0011124FF27591BFA
:1003700099F0593F50F4503E68F11A16F040A22F00
:10038000232F342F4427585FF3CF46953795279571
:10039000A795F0405395C9F77EF41F16BA0B620B70
:1003A000730B840BBAF09150A1F0FF0FBB1F661FB7
:1003B000771F881FC2F70EC0BA0F621F731F841FFA
:1003C00048F4879577956795B795F7959E3F08F020
:1003D000B3CF9395880F08F09927EE0F97958795DF
:1003E000089540D008F481E00895E89409C097FB8F
:1003F0003EF490958095709561957F4F8F4F9F4FFC
:100400009923A9F0F92F96E9BB279395F69587953F
:1004100077956795B795F111F8CFFAF4BB0F11F402
:1004200060FF1BC06F5F7F4F8F4F9F4F16C08823A9
:1004300011F096E911C0772321F09EE8872F762FDF
:1004400005C0662371F096E8862F70E060E02AF020
:100450009A95660F771F881FDAF7880F969587950C
:1004600097F90895990F0008550FAA0BE0E8FEEFE1
:1004700016161706E807F907C0F012161306E40768
:10048000F50798F0621B730B840B950B39F40A2661
:1004900061F0232B242B252B21F408950A2609F43F
:1004A000A140A6958FEF811D811D089597F99F6743
:1004B00080E870E060E008959FEF80EC08950024EC
:1004C0000A941616170618060906089500240A94B9
:1004D00012161306140605060895092E0394000C3F
:1004E00011F4882352F0BB0F40F4BF2B11F460FFCE
:1004F00004C06F5F7F4F8F4F9F4F089557FD9058F7
:10050000440F551F59F05F3F71F04795880F97FBD7
:10051000991F61F09F3F79F0879508951216130691
:100520001406551FF2CF4695F1DF08C016161706C0
:100530001806991FF1CF86957105610508940895F5
:10054000E894BB2766277727CB0197F908950BD04E
:10055000C4CFB5DF28F0BADF18F0952309F0A6CF95
:10056000ABCF1124EECFCADFA0F3959FD1F3950F47
:1005700050E0551F629FF001729FBB27F00DB11D27
:10058000639FAA27F00DB11DAA1F649F6627B00DB7
:10059000A11D661F829F2227B00DA11D621F739FA0
:1005A000B00DA11D621F839FA00D611D221F749FAE
:1005B0003327A00D611D231F849F600D211D822FF5
:1005C000762F6A2F11249F5750408AF0E1F088233C
:1005D0004AF0EE0FFF1FBB1F661F771F881F915049
:1005E0005040A9F79E3F510570F060CFAACF5F3F02
:1005F000ECF3983EDCF3869577956795B795F7957C
:10060000E7959F5FC1F7FE2B880F911D9695879503
:0806100097F90895F894FFCF5B
:100618000000000064006F12033B000000000000AF
:020628000000D0
:00000001FF
